:100000000C9483000C94B4000C94B4000C94B400D1
:100010000C94B4000C94B4000C94B4000C94B40090
:100020000C94B4000C94B4000C94B4000C94B40080
:100030000C94B4000C94B4000C94B4000C94B40070
:100040000C94B4000C94B4000C94B4000C94B40060
:100050000C94B4000C94B4000C94B4000C944303BE
:100060000C94B4000C945F040C9435040C94B4000C
:100070000C94B4000C94B4000C94B4000C94B40030
:100080000C94B4000C94B4000C94B4000C94B40020
:100090000C940B040C94E1030C94B4000C94B40085
:1000A0000C94B4000C94B4000C94B4000C94B40000
:1000B0000C94B4000C94B4000C94B4000C94B400F0
:1000C0000C94B4000C94B4000C94B4000C94B703DA
:1000D0000C948D030C94B4000C94B4000C94B400F4
:1000E0000C94B4000C94BC020C9401020C94AC016E
:1000F0000C9415020C9489040C9423020C94F201C4
:100100000C946F02890411241FBECFEFD1E2DEBF31
:10011000CDBF00E00CBF12E0A0E0B2E0E4EAFEE0F8
:1001200000E00BBF02C007900D92A831B107D9F7CC
:1001300024E0A8E1B2E001C01D92A43EB207E1F7BD
:1001400010E0C3E8D0E000E006C021970109802F4D
:10015000FE010E944807C238D10780E00807A9F7CE
:100160000E9468050C9450070C940000AC01460FE7
:10017000571F90E080E0FB012191BF01922728E00A
:1001800030E0FC01880F991FF7FF03C0F5E08F27CF
:10019000905821503109A9F74617570761F708957C
:1001A000FC01A089B18982E08C93A485B5851C925D
:1001B000A685B78580E18C93108EA489B58986E0E9
:1001C0008C93A289B3898C9180618C93A289B38925
:1001D0008C9188608C93A289B3898C9180688C9370
:1001E0000288F389E02D80818F7D808308953FB759
:1001F000F8948091350290913602A0913702B09127
:10020000380226B5A89B05C02F3F19F00196A11D05
:10021000B11D3FBFBA2FA92F982F8827BC01CD0150
:10022000620F711D811D911D42E0660F771F881FAF
:10023000991F4A95D1F708958F929F92AF92BF92DE
:10024000CF92DF92EF92FF924B015C010E94F70088
:100250006B017C010E94F7006C197D098E099F09D2
:10026000683E734081059105A8F321E0821A910848
:10027000A108B10888EEC80E83E0D81EE11CF11C6D
:1002800081149104A104B10429F7FF90EF90DF904D
:10029000CF90BF90AF909F908F9008950F931F9332
:1002A000CF93DF93EC0186E08B871C8683E08D87FC
:1002B0008BE08E871F8681E0888B8E010A5F1F4F3F
:1002C000B8018BE090E00E94B600898B9A8B8C81FC
:1002D0009D81DC01ED91FC910280F381E02D4DE0E8
:1002E00050E0B801199564E170E080E090E0DF91A2
:1002F000CF911F910F910C941C010F931F93CF93DB
:10030000DF93EC0186E08B871C8683E08D8780E499
:100310008E871F8681E0888B8E010A5F1F4FB80190
:100320008BE090E00E94B600898B9A8B8C819D8136
:10033000DC01ED91FC910280F381E02D4DE050E075
:10034000B801199564E170E080E090E0DF91CF9111
:100350001F910F910C941C01AF92BF92CF92DF922C
:10036000EF92FF920F931F93CF93DF936C017B016A
:100370008B01040F151FEB015E01AE18BF08C017FB
:10038000D10759F06991D601ED91FC910190F0816E
:10039000E02DC6011995892B79F7C501DF91CF9121
:1003A0001F910F91FF90EF90DF90CF90BF90AF9093
:1003B0000895FC01A089B1898C91A689B78982FD35
:1003C0000FC09C91818D8F5F8F73228D821749F0B2
:1003D000A18DAE0FBF2FB11D5D969C93818F0895A7
:1003E0008C910895FC01538D448D252F30E0842F8E
:1003F00090E0821B930B541710F0CF96089501974D
:100400000895FC01918D828D981761F0A28DAE0F39
:10041000BF2FB11D5D968C91928D9F5F9F73928FC0
:1004200090E008958FEF9FEF0895FC01918D828DEC
:10043000981731F0828DE80FF11D858D90E00895B9
:100440008FEF9FEF0895FC01918D228D892F90E011
:10045000805C9F4F821B91098F73992708958DEDC2
:1004600093E00E94230221E0892B09F420E0822FEF
:10047000089589E392E00E94230221E0892B09F488
:1004800020E0822F089586ED92E00E94230221E071
:10049000892B09F420E0822F0895FC01A48DA80F78
:1004A000B92FB11DA35ABF4F2C91848D90E00196B6
:1004B0008F739927848FA689B7892C93A089B189D6
:1004C0008C91837080648C93938D848D981306C077
:1004D0000288F389E02D80818F7D80830895EF92DB
:1004E000FF920F931F93CF93DF93EC0181E0888FEE
:1004F0009B8D8C8D98131AC0E889F989808185FFBE
:1005000015C09FB7F894EE89FF896083E889F9895F
:1005100080818370806480839FBF81E090E0DF9161
:10052000CF911F910F91FF90EF900895F62E0B8DB4
:1005300010E00F5F1F4F0F731127E02E8C8D8E116F
:100540000CC00FB607FCFACFE889F989808185FFD6
:10055000F5CFCE010E944D02F1CFEB8DEC0FFD2FB8
:10056000F11DE35AFF4FF0829FB7F8940B8FEA8991
:10057000FB8980818062CFCFCF93DF93EC01888DA0
:100580008823B9F0AA89BB89E889F9898C9185FD0E
:1005900003C0808186FD0DC00FB607FCF7CF8C919C
:1005A00085FFF2CF808185FFEDCFCE010E944D0205
:1005B000E9CFDF91CF91089580E090E0892B29F079
:1005C0000E94430281110E94000080E090E0892B8C
:1005D00029F00E94390281110E94000080E090E021
:1005E000892B29F00E942F0281110E94000080E0D7
:1005F00090E0892B49F080E090E0892B29F00E945F
:10060000000081110C94000008950F931F93CF9365
:10061000DF93EC0189E08B871C8683E08D8788E679
:100620008E871F86488B598B6A8B7B8B8E010A5F66
:100630001F4FB8018EE090E00E94B6008C8B9D8B1E
:100640008C819D81DC01ED91FC910280F381E02D94
:1006500040E150E0B801199564E170E080E090E07D
:10066000DF91CF911F910F910C941C01FC0101901F
:100670000020E9F73197AF01481B590BBC0186ED0B
:1006800092E00C94AC011F920F920FB60F921124BE
:100690002F933F938F939F93AF93BF93809131029A
:1006A00090913202A0913302B09134023091300225
:1006B00023E0230F2D3758F50196A11DB11D20937E
:1006C00030028093310290933202A0933302B093B0
:1006D00034028091350290913602A0913702B09198
:1006E00038020196A11DB11D809335029093360208
:1006F000A0933702B0933802BF91AF919F918F9131
:100700003F912F910F900FBE0F901F90189526E8E4
:10071000230F0296A11DB11DD2CF1F920F920FB6CB
:100720000F9211240BB60F922F933F934F935F9329
:100730006F937F938F939F93AF93BF93EF93FF93A9
:100740008DED93E00E944D02FF91EF91BF91AF912B
:100750009F918F917F916F915F914F913F912F91D9
:100760000F900BBE0F900FBE0F901F9018951F9209
:100770000F920FB60F9211240BB60F922F933F9347
:100780004F935F936F937F938F939F93AF93BF9399
:10079000EF93FF938DED93E00E94D901FF91EF91CC
:1007A000BF91AF919F918F917F916F915F914F9189
:1007B0003F912F910F900BBE0F900FBE0F901F9087
:1007C00018951F920F920FB60F9211240BB60F922D
:1007D0002F933F934F935F936F937F938F939F9349
:1007E000AF93BF93EF93FF9389E392E00E944D0292
:1007F000FF91EF91BF91AF919F918F917F916F91F9
:100800005F914F913F912F910F900BBE0F900FBEB4
:100810000F901F9018951F920F920FB60F921124F0
:100820000BB60F922F933F934F935F936F937F93EA
:100830008F939F93AF93BF93EF93FF9389E392E0DE
:100840000E94D901FF91EF91BF91AF919F918F913C
:100850007F916F915F914F913F912F910F900BBEC0
:100860000F900FBE0F901F9018951F920F920FB60A
:100870000F9211240BB60F922F933F934F935F93D8
:100880006F937F938F939F93AF93BF93EF93FF9358
:1008900086ED92E00E944D02FF91EF91BF91AF91E2
:1008A0009F918F917F916F915F914F913F912F9188
:1008B0000F900BBE0F900FBE0F901F9018951F92B8
:1008C0000F920FB60F9211240BB60F922F933F93F6
:1008D0004F935F936F937F938F939F93AF93BF9348
:1008E000EF93FF9386ED92E00E94D901FF91EF9183
:1008F000BF91AF919F918F917F916F915F914F9138
:100900003F912F910F900BBE0F900FBE0F901F9035
:100910001895EDEDF3E01382128248EE53E060E0AB
:1009200070E0448355836683778384E092E091830B
:10093000808325ED30E03587248724ED30E037874C
:10094000268720ED30E0318B208B21ED30E0338B9A
:10095000228B22ED30E0358B248B26ED30E0378B77
:10096000268B118E128E138E148EA9E3B2E013968D
:100970001C921E92129714964D935D936D937C93E7
:10098000179711969C938E932DEC30E01D963C9317
:100990002E931C972CEC30E01F963C932E931E97C1
:1009A00028EC30E051963C932E93509729EC30E0A0
:1009B00053963C932E9352972AEC30E055963C93F5
:1009C0002E9354972EEC30E057963C932E935697E7
:1009D00059961C9259975A961C925A975B961C925C
:1009E0005B975C961C92A6EDB2E013961C921E9249
:1009F000129714964D935D936D937C931797119670
:100A00009C938E9385EC90E01D969C938E931C97FF
:100A100084EC90E01F969C938E931E9780EC90E060
:100A200051969C938E93509781EC90E053969C93B3
:100A30008E93529782EC90E055969C938E935497A8
:100A400086EC90E057969C938E93569759961C92FD
:100A500059975A961C925A975B961C925B975C9694
:100A60001C92AAE7B4E081E090E011969C938E93EB
:100A70001596FC93EE9314978FEF16968C9316971A
:100A800017968C9317979DEF18969C931897199625
:100A90001C92199721E01A962C93A3E7B3E022E069
:100AA00030E011963C932E931596FC93EE93149799
:100AB00016968C93169717968C93179718969C9367
:100AC000189719961C92199782E01A968C9308959C
:100AD000CF93DF93CDB7DEB7A1970FB6F894DEBF03
:100AE0000FBECDBF789484B5826084BD84B581602B
:100AF00084BD85B5826085BD85B5816085BD8091E9
:100B00006E00816080936E00109281008091810060
:100B10008260809381008091810081608093810058
:100B2000809180008160809380008091B10084601A
:100B30008093B1008091B00081608093B00080917B
:100B400091008260809391008091910081608093F8
:100B50009100809190008160809390008091A1002D
:100B600082608093A1008091A10081608093A100A8
:100B70008091A00081608093A0008091210182601B
:100B800080932101809121018160809321018091D6
:100B9000200181608093200180917A00846080939D
:100BA0007A0080917A00826080937A0080917A0046
:100BB000816080937A0080917A00806880937A00C7
:100BC0001092C10086ED92E00E94D00089E392E08D
:100BD0000E94D0008DED93E00E94D00068EC70E0A0
:100BE00080E090E00E941C018AE794E00E944E01A0
:100BF00083E793E00E944E018AE794E00E947D0122
:100C000083E793E00E947D0160E971E080E090E07D
:100C10000E941C0125E0322ECE0101962C016E01AE
:100C200095E0C90ED11C30E3632E32E0732E4AE00A
:100C3000842E912CA12CB12C89E392E00E942302F6
:100C400005970CF44DC0F201832D11928A95E9F7B6
:100C500089E392E00E940102282E89839FEF2912E6
:100C60003FC08E010E5F1F4F780189E392E00E9422
:100C70000102F80181938F01280ECE16DF06A9F735
:100C800089E392E00E9401028D83281229C0E8E1E5
:100C9000F2E030E020E0D90193E0B595A7959A9570
:100CA000E1F7AE0DBF1D8C9190E0A901477055276B
:100CB00002C0959587954A95E2F7817081932F5FE1
:100CC0003F4F2831310539F789E392E00E94230232
:100CD000181619062CF489E392E00E940102F4CF61
:100CE00088E1E82E82E0F82EF70121917F0130E0C3
:100CF00050E040E019A28E010F5D1F4FCA01B901FB
:100D0000A50194010E942607605DF80162938F019E
:100D1000211531054105510589F7309719F0CF01AB
:100D20000E94360382E192E00E9436036E147F0433
:100D3000D9F686E192E00E94360384E192E00E94B7
:100D4000360380911F02882371F044E650E060E092
:100D500070E08AE794E00E94050362E370E080E0BF
:100D600090E00E941C0180911D02882371F04CE9E3
:100D70005FEF6FEF7FEF8AE794E00E94050362E385
:100D800070E080E090E00E941C0181E090E0209102
:100D90001D02222311F090E080E020911F02822B9F
:100DA000892B69F040E050E0BA018AE794E00E94A4
:100DB000050362E370E080E090E00E941C018091F6
:100DC0002C02882371F044E650E060E070E083E795
:100DD00093E00E94050362E370E080E090E00E94EF
:100DE0001C0180912D02882371F04CE95FEF6FEFB9
:100DF0007FEF83E793E00E94050362E370E080E009
:100E000090E00E941C0181E090E020912D022223BD
:100E100011F090E080E020912C02822B892B69F068
:100E200040E050E0BA0183E793E00E94050362E3EB
:100E300070E080E090E00E941C0164E170E080E0DE
:100E400090E00E941C010E94DC02F6CEA1E21A2E64
:100E5000AA1BBB1BFD010DC0AA1FBB1FEE1FFF1F5E
:100E6000A217B307E407F50720F0A21BB30BE40BAE
:100E7000F50B661F771F881F991F1A9469F76095F5
:100E80007095809590959B01AC01BD01CF010895AF
:100E9000EE0FFF1F881F8BBF0790F691E02D19946E
:040EA000F894FFCFF4
:100EA400000000006F02AC01F201BC022302010247
:080EB400150220000D0A0000E8
:00000001FF
