:100000000C9483000C94B4000C94B4000C94B400D1
:100010000C94B4000C94B4000C94B4000C94B40090
:100020000C94B4000C94B4000C94B4000C94B40080
:100030000C94B4000C94B4000C94B4000C94B40070
:100040000C94B4000C94B4000C94B4000C94B40060
:100050000C94B4000C94B4000C94B4000C942402DE
:100060000C94B4000C94F8020C94CE020C94B400DE
:100070000C94B4000C94B4000C94B4000C94B40030
:100080000C94B4000C94B4000C94B4000C94B40020
:100090000C9498020C946E020C94B4000C94B4006E
:1000A0000C94B4000C94B4000C94B4000C94B40000
:1000B0000C94B4000C94B4000C94B4000C94B400F0
:1000C0000C94B4000C94B4000C94B4000C94B400E0
:1000D0000C94B4000C94B4000C94B4000C94B400D0
:1000E0000C94B4000C942E030C940A010C94190186
:1000F0000C94DD000C942D010C94CA010C943B016E
:100100000C947D012E0311241FBECFEFD1E2DEBF80
:10011000CDBF00E00CBF12E0A0E0B2E0EAE7F9E0FA
:1001200000E00BBF02C007900D92A831B107D9F7CC
:1001300023E0A8E1B2E001C01D92A337B207E1F7C6
:1001400010E0C3E8D0E000E006C021970109802F4D
:10015000FE010E94B304C238D10780E00807A9F766
:100160000E9481030C94BB040C940000FC01A08944
:10017000B18982E08C93A485B5851C92A685B7854C
:1001800080E18C93108EA489B58986E08C93A28936
:10019000B3898C9180618C93A289B3898C9188609A
:1001A0008C93A289B3898C9180688C930288F3899F
:1001B000E02D80818F7D80830895AF92BF92CF9292
:1001C000DF92EF92FF920F931F93CF93DF936C0117
:1001D0007B018B01040F151FEB015E01AE18BF08F8
:1001E000C017D10759F06991D601ED91FC910190AA
:1001F000F081E02DC6011995892B79F7C501DF91B2
:10020000CF911F910F91FF90EF90DF90CF90BF9013
:10021000AF900895FC01538D448D252F30E0842F3D
:1002200090E0821B930B541710F0CF96089501971E
:100230000895FC01918D828D981761F0A28DAE0F0B
:10024000BF2FB11D5D968C91928D9F5F9F73928F92
:1002500090E008958FEF9FEF0895FC01918D828DBE
:10026000981731F0828DE80FF11D858D90E008958B
:100270008FEF9FEF0895FC01918D228D892F90E0E3
:10028000805C9F4F821B91098F739927089589E3A2
:1002900092E00E943B0121E0892B09F420E0822FAB
:1002A000089586ED92E00E943B0121E0892B09F43C
:1002B00020E0822F0895FC01A48DA80FB92FB11D55
:1002C000A35ABF4F2C91848D90E001968F7399278C
:1002D000848FA689B7892C93A089B1898C9183706A
:1002E00080648C93938D848D981306C00288F38963
:1002F000E02D80818F7D80830895EF92FF920F9390
:100300001F93CF93DF93EC0181E0888F9B8D8C8DC1
:1003100098131AC0E889F989808185FF15C09FB7B5
:10032000F894EE89FF896083E889F9898081837078
:10033000806480839FBF81E090E0DF91CF911F9127
:100340000F91FF90EF900895F62E0B8D10E00F5F48
:100350001F4F0F731127E02E8C8D8E110CC00FB61E
:1003600007FCFACFE889F989808185FFF5CFCE01B6
:100370000E945B01F1CFEB8DEC0FFD2FF11DE35AD5
:10038000FF4FF0829FB7F8940B8FEA89FB89808139
:100390008062CFCFCF93DF93EC01888D8823B9F0B3
:1003A000AA89BB89E889F9898C9185FD03C0808180
:1003B00086FD0DC00FB607FCF7CF8C9185FFF2CFFD
:1003C000808185FFEDCFCE010E945B01E9CFDF91F7
:1003D000CF91089580E090E0892B29F00E9451018F
:1003E00081110E94000080E090E0892B29F00E949A
:1003F000470181110E94000080E090E0892B49F0C4
:1004000080E090E0892B29F00E94000081110E9479
:10041000000080E090E0892B49F080E090E0892B9B
:1004200029F00E94000081110C9400000895FC0145
:1004300001900020E9F73197AF01481B590BBC012F
:1004400086ED92E00C94DD001F920F920FB60F9292
:1004500011242F933F938F939F93AF93BF938091DA
:10046000350290913602A0913702B0913802309156
:10047000340223E0230F2D3758F50196A11DB11D3D
:10048000209334028093350290933602A093370272
:10049000B09338028091300290913102A0913202E3
:1004A000B09133020196A11DB11D8093300290934B
:1004B0003102A0933202B0933302BF91AF919F916A
:1004C0008F913F912F910F900FBE0F901F90189515
:1004D00026E8230F0296A11DB11DD2CF1F920F92C5
:1004E0000FB60F9211240BB60F922F933F934F9399
:1004F0005F936F937F938F939F93AF93BF93EF938C
:10050000FF9389E392E00E945B01FF91EF91BF911D
:10051000AF919F918F917F916F915F914F913F919B
:100520002F910F900BBE0F900FBE0F901F9018953C
:100530001F920F920FB60F9211240BB60F922F93AA
:100540008F939F93EF93FF93E0914902F0914A02BA
:100550008081E0914F02F091500282FD1DC0908198
:10056000809152028F5F8F7320915302821741F066
:10057000E0915202F0E0E75CFD4F958F80935202CC
:10058000FF91EF919F918F912F910F900BBE0F9044
:100590000FBE0F901F9018958081F2CF1F920F927F
:1005A0000FB60F9211240BB60F922F933F934F93D8
:1005B0005F936F937F938F939F93AF93BF93EF93CB
:1005C000FF9386ED92E00E945B01FF91EF91BF9156
:1005D000AF919F918F917F916F915F914F913F91DB
:1005E0002F910F900BBE0F900FBE0F901F9018957C
:1005F0001F920F920FB60F9211240BB60F922F93EA
:100600008F939F93EF93FF93E091E602F091E702BF
:100610008081E091EC02F091ED0282FD1DC090819D
:100620008091EF028F5F8F732091F002821741F06B
:10063000E091EF02F0E0EA52FD4F958F8093EF02D8
:10064000FF91EF919F918F912F910F900BBE0F9083
:100650000FBE0F901F9018958081F2CFE9E3F2E072
:100660001382128248EE53E060E070E044835583C9
:100670006683778384E092E0918380832DEC30E081
:10068000358724872CEC30E03787268728EC30E04C
:10069000318B208B29EC30E0338B228B2AEC30E03D
:1006A000358B248B2EEC30E0378B268B118E128EFF
:1006B000138E148EE6EDF2E013821282448355838A
:1006C000668377839183808385EC90E09587848728
:1006D00084EC90E09787868780EC90E0918B808B0C
:1006E00081EC90E0938B828B82EC90E0958B848BF5
:1006F00086EC90E0978B868B118E128E138E148E63
:100700000895CF93DF93CDB7DEB7A1970FB6F894D6
:10071000DEBF0FBECDBF789484B5826084BD84B542
:10072000816084BD85B5826085BD85B5816085BDEC
:1007300080916E00816080936E00109281008091A4
:10074000810082608093810080918100816080932C
:100750008100809180008160809380008091B10051
:1007600084608093B1008091B00081608093B0007C
:1007700080919100826080939100809191008160CE
:10078000809391008091900081608093900080918F
:10079000A10082608093A1008091A100816080937C
:1007A000A1008091A00081608093A0008091210130
:1007B00082608093210180912101816080932101D9
:1007C0008091200181608093200180917A00846073
:1007D00080937A0080917A00826080937A00809181
:1007E0007A00816080937A0080917A00806880939B
:1007F0007A001092C10086ED92E00E94B60089E373
:1008000092E00E94B60025E0322ECE0101962C0126
:100810006E0195E0C90ED11C30E3632E32E0732ED9
:100820004AE0842E912CA12CB12C89E392E00E9405
:100830003B0105970CF441C0F201832D11928A957A
:10084000E9F789E392E00E941901282E89839FEF3E
:10085000291233C08E010E5F1F4F780189E392E0A9
:100860000E941901F80181938F01280ECE16DF0630
:10087000A9F789E392E00E9419018D8328121DC017
:10088000E8E1F2E030E020E0D90193E0B595A795EA
:100890009A95E1F7AE0DBF1D8C9190E0A9014770CC
:1008A000552702C0959587954A95E2F78170819307
:1008B0002F5F3F4F2831310539F788E1E82E82E07C
:1008C000F82EF70121917F0130E050E040E019A2BD
:1008D0008E010F5D1F4FCA01B901A50194010E944D
:1008E0009104605DF80162938F0121153105410586
:1008F000510589F7309719F0CF010E94170282E164
:1009000092E00E9417026E147F04D9F686E192E00D
:100910000E94170284E192E00E9417020E94EA01FD
:1009200084CFA1E21A2EAA1BBB1BFD010DC0AA1F7A
:10093000BB1FEE1FFF1FA217B307E407F50720F048
:10094000A21BB30BE40BF50B661F771F881F991FC3
:100950001A9469F760957095809590959B01AC010C
:10096000BD01CF010895EE0FFF1F881F8BBF0790B9
:0A097000F691E02D1994F894FFCFE2
:10097A00000000007D01DD000A01CA013B011901E6
:08098A002D0120000D0A000000
:00000001FF
